:020000040000FA
:060000000A128A1110280B
:10000800FE00030E83120313C7000A08C8007F0806
:10001800C9000A128A11D32D0A128A1113288316CD
:1000280003130A128A11D1270A128A11D2000A125E
:100038008A11D2270A128A11D3000A128A11D327E9
:100048000A128A11D4000A128A11D4270A128A11B4
:10005800D5008313BE308400D2300A128A11C92712
:100068000A128A1183120313CA01CB0183010A12EF
:100078008A111B2A8312031327088039A80028082D
:10008800B1002708A8002807A9002908B800A61F5A
:100098004E284F2850283814380803195428552852
:1000A8006528380A031D59285A2862280030A700F5
:1000B8000030A6000030A5000030A400A617A70154
:1000C8006D280030A7000030A6000030A5000030E1
:1000D800A40023088039A8002808B1062308A8002E
:1000E8002807A9002908B900A21F7B287C287D2899
:1000F800391439080319812882289228390A031DDE
:10010800862887288F280030A3000030A2000030FE
:10011800A1000030A000A217A3019A280030A30074
:100128000030A2000030A1000030A0002308220403
:1001380021042004031DA128A228BB280030A70001
:100148000030A6000030A5000030A4008030A604CE
:100158007F30A7043108A8002808A7042708A300AF
:100168002608A2002508A1002408A0001A2A380899
:10017800031DBF28C028C9280030A3000030A200F2
:100188000030A1000030A0001A2A3808A800A901F0
:100198002908AB0039082802AA00031CAB032A0867
:1001A8007F3EB2002B080318013E003EB30027082B
:1001B800B0002608AF002508AE002408AD000030C6
:1001C800A7000030A6000030A5000030A4000030D1
:1001D800B7000030B6000030B5000030B400B901F7
:1001E8003F2939080319F928FA281A290130A800E3
:1001F8000310AD0DAE0DAF0DB00DA80BFC280130EE
:10020800A8000310A40DA50DA60DA70DA80B052980
:10021800B71F0F291029112924140130A800031031
:10022800B40DB50DB60DB70DA80B13292308300270
:10023800031D282922082F02031D282921082E0220
:10024800031D282920082D02031C2B292C293B29B2
:1002580037172008AD022108031C210FAE0222081F
:10026800031C220FAF022308031C230FB002013026
:10027800A8002808B9071A303902031C442945295F
:10028800F52830082F042E042D0403194C294D2974
:100298006C2934146C290130A8000310A40DA50D95
:1002A800A60DA70DA80B5129B71F5B295C295D294D
:1002B80024140130A8000310B40DB50DB60DB70D08
:1002C800A80B5F29FF30B2070318B30AFF30B30742
:1002D800A61F6F2970294F29B901B71F74297529DD
:1002E8009129FF303405A800FF303505A900FF30FB
:1002F8003605AA007F303705AB002B082A042904ED
:1003080028040319882989298C29B901B90A91294E
:10031800241C8F299029912989293908031995299D
:100328009629C7290130A407003003180130A50712
:10033800003003180130A607003003180130A70762
:10034800271CA729A829C7292408A8002508A90027
:100358002608AA002708AB000130AC002B0DAB0C17
:10036800AA0CA90CA80CAC0BB2292B08A7002A08C8
:10037800A6002908A5002808A4000130B207031820
:10038800B30A0030B3073308803AFF0080307F0299
:10039800031DD029FF303202031CD329D429E229B6
:1003A800FF3083120313B2000030B3000030A700FF
:1003B8000030A6000030A5000030A400831203130B
:1003C8003308803AFF0080307F02031DED29013099
:1003D80032020318F029F129FE2983120313B2010E
:1003E800B3010030A7000030A6000030A50000309F
:1003F800A400B101831203133208A8002808B8002A
:10040800381C072A082A0A2AA6170E2A7F30A800AD
:100418002808A6053808A8000310280CA9002908F0
:10042800A7003108A8002808A704B22808008316E6
:1004380003130610061687018312031387018B170F
:100448000B108B15901210160A128A115F270A12C8
:100458008A11831203138F018E0106140530831647
:100468000313BB00BB0B362A392A83120313061069
:100478000B3083160313BB003B08AE008312031333
:100488004B0883160313B000831203134A0883161C
:100498000313AF00BE300A128A1129230A128A11E7
:1004A80083160313B101BE30B2000030B300003030
:1004B8000A128A117D260A128A11831203134B0825
:1004C800803AFF0080307F02031D6C2AC9304A023F
:1004D80003186F2A702A932A831203134B08803A51
:1004E800FF0080307F02031D7B2A02304A02031C72
:1004F8007E2A7F2A932A831203134B08803AFF002F
:1005080081307F02031D8A2A91304A0203188D2AFE
:100518008E2A932A8312031387140715972A8312A6
:100528000313871007114B08803AFF0080307F02C1
:10053800031DA02A97304A020318A32AA42AC62A10
:10054800831203134B08803AFF0080307F02031D9B
:10055800AF2A02304A02031CB22AB32AC62A8312DF
:1005680003134B08803AFF0081307F02031DBE2A27
:1005780091304A020318C12AC22AC62A83120313D9
:100588000714C92A8312031307104B08803AFF0087
:1005980080307F02031DD22A02304A02031CD52A6A
:1005A800D62AE52A831203134B08803AFF008130CC
:1005B8007F02031DE12A91304A02031CE42AE52A3E
:1005C800162B01300A128A11B1270A128A118312D6
:1005D80003134B08803AFF0080307F02031DF62A80
:1005E80003304A020318F92AFA2A092B8312031343
:1005F8004B08803AFF0081307F02031D052B9030A5
:100608004A020318082B092BEB2A83160313B1019E
:100618001B30B2008030B30000300A128A117D26E8
:100628000A128A11053083160313BD000F30BC006F
:10063800F030BB00BB0B1E2BBC0B1E2BBD0B1E2BA7
:1006480000002D2A0A128A11102883160313B900F4
:10065800AF30B1003108B400FC2B25303A0603193D
:10066800362B372B432B3A08B10039088400310860
:10067800831380000130B1003108B907FC2BB501A4
:100688000130AE07FF302E0784000A128A110A27AC
:100698000A128A11BA00B100B2013208003A0319ED
:1006A800562BFC2B3108003A03190E2C643A031917
:1006B800612B0D3A0319612BFC2B3408840083133A
:1006C8000008B700840A0008B8000230B1003108F9
:1006D800B407B81F702B712B7A2B0330B100310887
:1006E800B504B709B809B70A0319B80ABA01BA0AAA
:1006F8003A08B1003107013E84000A128A110A271C
:100708000A128A11B2000A128A110A270A128A11D9
:10071800B30033083802031D932B3208370203183D
:10072800962B972B982BA22B0130B1003108BA07D2
:1007380005303A06031DA12BA22B7C2B3508033963
:100748000319A72BA82BB32B2D30B100390884002F
:100758003108831380000130B1003108B9073A0825
:10076800B1003108B600F32B0A30A8000030A90008
:100778003608B1003107013E84000A128A110A279F
:100788000A128A11A0000A128A110A270A128A116B
:10079800A1003808A3003708A2000A128A113726D8
:1007A8000A128A11831603132108AB002008AA0035
:1007B8000A128A11C1260A128A11831603132808FD
:1007C800303EB2003208BA003A08B1003908840055
:1007D8003108831380000130B1003108B907FF30B8
:1007E800B1003108B607360A031DFB2BFC2BB82BCA
:1007F8000130AE07FF302E0784000A128A110A273B
:100808000A128A11B1003108BA003A08031D0D2CEA
:100818000E2C312B39088400831380010800F8005E
:1008280078080319182C192C2D2CF31F1C2C1D2C9F
:100838002D2C7009FA007109FB007209FC0073097C
:10084800FD00FA0A0319FB0A0319FC0A0319FD0A39
:10085800352C7308FD007208FC007108FB00700855
:10086800FA007308720471047004031D3C2C3D2CBB
:10087800462C0030F3000030F2000030F100003068
:10088800F000CC2C9630F4007408F900582C013094
:10089800F4007408F90701300310FD0CFC0CFB0C84
:1008A800FA0CFF3E031D502CFE307D05031D5D2C08
:1008B8005E2C4B2C7A2C0130F4007408F9070130B7
:1008C800FA07003003180130FB0700300318013025
:1008D800FC07003003180130FD0701300310FD0C40
:1008E800FC0CFB0CFA0CFF3E031D722CFF307D053F
:1008F800031D7F2C802C5F2C8C2C0130F9020130D9
:10090800F4000310FA0DFB0DFC0DFD0DF40B852C06
:10091800FC1B8F2C902C962C023079020318952CF6
:10092800962C812C7918992C9A2CA22CFF30FA0538
:10093800FF30FB057F30FC05FF30FD050310F90C87
:100948007908F400F501F601F70118300310F40DE9
:10095800F50DF60DF70DFF3E031DAA2C7408FA04D9
:100968007508FB047608FC047708FD047808031969
:10097800BE2CBF2CC42CF31FC22CC32CC42CFD17B7
:100988007D08F3007C08F2007B08F1007A08F0008B
:10099800080083160313A2002208043E8400831370
:1009A8000018D72CDB2C831203130816DE2C8312B5
:1009B80003130812831603132208053E84008313C9
:1009C8000018E72CEB2C831203138816EE2C8312E5
:1009D80003138812831603132208063E8400831328
:1009E8000018F72CFB2C831203130817FE2C831214
:1009F80003130813831603132208073E8400831386
:100A08000018072D0B2D8312031388170E2D831240
:100A1800031388130A128A1191270A128A1183165E
:100A2800031322088400831300181B2D1F2D831223
:100A380003130816222D83120313081283160313B7
:100A4800220A8400831300182A2D2E2D83120313E3
:100A58008816312D83120313881283160313220874
:100A6800023E8400831300183A2D3E2D831203138F
:100A78000817412D83120313081383160313220842
:100A8800033E8400831300184A2D4E2D831203134E
:100A98008817512D8312031388130A128A1191277C
:100AA8000A128A1108000310831203133C0D3D0D2E
:100AB800BE003E08C4004408031D632D642D6D2D3F
:100AC8000030BD000030BC000030BB000030BA0070
:100AD800D22D3A08BE003B08BF003C08C0003D08C4
:100AE800C1001F300310C10CC00CBF0CBE0CFF3E70
:100AF800031D762D3E08C2004208C300BC17FF3014
:100B0800BA05FF30BB05FF30BC050030BD05963087
:100B1800C402C41F902D912DAB2D4408803A973EF6
:100B28000318972D982D992D642D01300310BD0CB5
:100B3800BC0CBB0CBA0CFF3E031D9A2D0130BE0045
:100B48003E08C407031DA92DAA2D992DC22D2030BA
:100B58004402031CB02DB12DBD2D642D0130BE0003
:100B68000310BA0DBB0DBC0DBD0DBE0BB42D01306D
:100B7800C4024408031DC12DC22DB22D4308031918
:100B8800C62DC72DD22DBA09BB09BC09BD09BA0AA1
:100B98000319BB0A0319BC0A0319BD0A08000B1C78
:100BA800D62DD72D2C2E8B11061EDB2DDC2DDD2D01
:100BB8001014061AE02DE12D2C2E10100F08C50078
:100BC800C6014508C600C50145080E04F0004608E0
:100BD800F100F201F11BF2037208F30001300A126E
:100BE8008A1113240A128A11730883120313A700A7
:100BF8007208A6007108A5007008A4004230A3007E
:100C08006B30A2004730A100AE30A0000A128A1152
:100C18003E200A128A11831203132308BD002208FA
:100C2800BC002108BB002008BA000A128A11572507
:100C38000A128A11831203133B08CB003A08CA0030
:100C48004A08013ECA004B080318013E003ECB008B
:100C58000B108B154908FF0048088A00470E8300CF
:100C6800FE0E7E0E090083160313A501A6012008B7
:100C780021040319402E412E782EA701A70A4F2ED2
:100C880001300310A00DA10DFF3E031D452E0130BC
:100C9800A4002408A707A11F522E532E442E01306A
:100CA8000310A50DA60DFF3E031D542E2108230297
:100CB800031D602E20082202031C632E642E6B2E57
:100CC8002008A2022108031CA303A3022514013053
:100CD8000310A10CA00CFF3E031D6C2E0130A702CF
:100CE800031D772E782E532E2608A1002508A00074
:100CF800080083160313B4003408D23E8400310878
:100D0800831300070A128A11B1270A128A11AA2E20
:100D180083160313330883120313FF008316031388
:100D280032088400831203130A128A1100270A1258
:100D38008A110A128A11A2270A128A11013083160F
:100D48000313B2070318B30A0030B307831603135B
:100D5800330883120313FF00831603133208840039
:100D6800831203130A128A1100270A128A11003A01
:100D7800031DBF2EC02E8C2E0800831603132808CF
:100D880029040319C82EC92EF82EAD01AD0AD72E95
:100D980001300310A80DA90DFF3E031DCD2E013013
:100DA800AC002C08AD07A91FDA2EDB2ECC2E2908A3
:100DB8002B02031DE12E28082A02031CE42EE52E2F
:100DC800EB2E2808AA022908031CAB03AB0201304A
:100DD8000310A90CA80CFF3E031DEC2E0130AD0238
:100DE800031DF72EF82EDB2E2B08A9002A08A800D1
:020DF8000800F1
:100E0000FF1B0A2F83137F1883170008840A031916
:100E1000FF0A080007308A000408840A82070034A9
:100E2000013400340A34003464340034E8340334C8
:100E300010342734443469347334743461346E3478
:100E40006334653420343D342034253464346334D1
:100E50006D3400344F347534743420346F34663458
:100E60002034523461346E344734653421340034D4
:100E700083160313A400A5012408A100250A422F0C
:100E80000310A10CFF3E031D402F2118482F4A2FAD
:100E900001304B2F0030A20025082007A3002308B3
:100EA00084002208831380000130A1002108A507D7
:100EB00008302502031C5D2F5E2F3C2F08000A120C
:100EC0008A11C0270A128A1102300A128A11B12728
:100ED0000A128A1128300A128A11B1270A128A11BD
:100EE0000C300A128A11B1270A128A1106300A122E
:100EF0008A11B1270A128A11080083160313AF0062
:100F0000A730A6002608A0002F080A128A11382749
:100F10000A128A11A7300A128A11CD240A128A11E4
:100F200008008312031388140D3083160313A100E5
:100F3000FB30A000A00B9A2FA10B9A2F8312031352
:100F40008810080083160313B000831203130814DB
:100F50008316031330080A128A117D270A128A1198
:100F6000080083160313B0008312031308108316BE
:100F7000031330080A128A117D270A128A11080009
:100F80008316031308108810081288120813881398
:100F9000080064008001840A040603190034040672
:0A0FA000CA2F8034C0349434D434D6
:02400E003A3F37
:00000001FF
